{
  "contractName": "Voting",
  "abi": [
    {
      "inputs": [
        {
          "internalType": "address",
          "name": "_authorizer",
          "type": "address"
        },
        {
          "internalType": "uint256",
          "name": "_commitStart",
          "type": "uint256"
        },
        {
          "internalType": "uint256",
          "name": "_commitEnd",
          "type": "uint256"
        },
        {
          "internalType": "uint256",
          "name": "_revealEnd",
          "type": "uint256"
        }
      ],
      "stateMutability": "nonpayable",
      "type": "constructor"
    },
    {
      "anonymous": false,
      "inputs": [
        {
          "indexed": true,
          "internalType": "address",
          "name": "voter",
          "type": "address"
        },
        {
          "indexed": false,
          "internalType": "bytes32",
          "name": "ballotHash",
          "type": "bytes32"
        }
      ],
      "name": "EncryptedBallotAnchored",
      "type": "event"
    },
    {
      "anonymous": false,
      "inputs": [
        {
          "indexed": false,
          "internalType": "uint256[]",
          "name": "results",
          "type": "uint256[]"
        }
      ],
      "name": "TallyFinalized",
      "type": "event"
    },
    {
      "anonymous": false,
      "inputs": [
        {
          "indexed": true,
          "internalType": "address",
          "name": "voter",
          "type": "address"
        },
        {
          "indexed": false,
          "internalType": "bytes32",
          "name": "commitment",
          "type": "bytes32"
        }
      ],
      "name": "VoteCommitted",
      "type": "event"
    },
    {
      "anonymous": false,
      "inputs": [
        {
          "indexed": true,
          "internalType": "address",
          "name": "voter",
          "type": "address"
        },
        {
          "indexed": true,
          "internalType": "uint256",
          "name": "candidateId",
          "type": "uint256"
        }
      ],
      "name": "VoteRevealed",
      "type": "event"
    },
    {
      "anonymous": false,
      "inputs": [
        {
          "indexed": true,
          "internalType": "address",
          "name": "voter",
          "type": "address"
        }
      ],
      "name": "VoterRegistered",
      "type": "event"
    },
    {
      "inputs": [],
      "name": "admin",
      "outputs": [
        {
          "internalType": "address",
          "name": "",
          "type": "address"
        }
      ],
      "stateMutability": "view",
      "type": "function"
    },
    {
      "inputs": [],
      "name": "authorizer",
      "outputs": [
        {
          "internalType": "address",
          "name": "",
          "type": "address"
        }
      ],
      "stateMutability": "view",
      "type": "function"
    },
    {
      "inputs": [
        {
          "internalType": "uint256",
          "name": "",
          "type": "uint256"
        }
      ],
      "name": "candidates",
      "outputs": [
        {
          "internalType": "string",
          "name": "",
          "type": "string"
        }
      ],
      "stateMutability": "view",
      "type": "function"
    },
    {
      "inputs": [],
      "name": "commitEnd",
      "outputs": [
        {
          "internalType": "uint256",
          "name": "",
          "type": "uint256"
        }
      ],
      "stateMutability": "view",
      "type": "function"
    },
    {
      "inputs": [],
      "name": "commitStart",
      "outputs": [
        {
          "internalType": "uint256",
          "name": "",
          "type": "uint256"
        }
      ],
      "stateMutability": "view",
      "type": "function"
    },
    {
      "inputs": [],
      "name": "finalTallyDone",
      "outputs": [
        {
          "internalType": "bool",
          "name": "",
          "type": "bool"
        }
      ],
      "stateMutability": "view",
      "type": "function"
    },
    {
      "inputs": [
        {
          "internalType": "address",
          "name": "",
          "type": "address"
        }
      ],
      "name": "hasCommitted",
      "outputs": [
        {
          "internalType": "bool",
          "name": "",
          "type": "bool"
        }
      ],
      "stateMutability": "view",
      "type": "function"
    },
    {
      "inputs": [
        {
          "internalType": "address",
          "name": "",
          "type": "address"
        }
      ],
      "name": "hasRevealed",
      "outputs": [
        {
          "internalType": "bool",
          "name": "",
          "type": "bool"
        }
      ],
      "stateMutability": "view",
      "type": "function"
    },
    {
      "inputs": [
        {
          "internalType": "address",
          "name": "",
          "type": "address"
        }
      ],
      "name": "isRegistered",
      "outputs": [
        {
          "internalType": "bool",
          "name": "",
          "type": "bool"
        }
      ],
      "stateMutability": "view",
      "type": "function"
    },
    {
      "inputs": [],
      "name": "revealEnd",
      "outputs": [
        {
          "internalType": "uint256",
          "name": "",
          "type": "uint256"
        }
      ],
      "stateMutability": "view",
      "type": "function"
    },
    {
      "inputs": [
        {
          "internalType": "uint256",
          "name": "",
          "type": "uint256"
        }
      ],
      "name": "tally",
      "outputs": [
        {
          "internalType": "uint256",
          "name": "",
          "type": "uint256"
        }
      ],
      "stateMutability": "view",
      "type": "function"
    },
    {
      "inputs": [
        {
          "internalType": "address",
          "name": "",
          "type": "address"
        }
      ],
      "name": "voteCommitment",
      "outputs": [
        {
          "internalType": "bytes32",
          "name": "",
          "type": "bytes32"
        }
      ],
      "stateMutability": "view",
      "type": "function"
    },
    {
      "inputs": [
        {
          "internalType": "string",
          "name": "name",
          "type": "string"
        }
      ],
      "name": "addCandidate",
      "outputs": [],
      "stateMutability": "nonpayable",
      "type": "function"
    },
    {
      "inputs": [],
      "name": "candidatesCount",
      "outputs": [
        {
          "internalType": "uint256",
          "name": "",
          "type": "uint256"
        }
      ],
      "stateMutability": "view",
      "type": "function"
    },
    {
      "inputs": [
        {
          "internalType": "uint256",
          "name": "_commitStart",
          "type": "uint256"
        },
        {
          "internalType": "uint256",
          "name": "_commitEnd",
          "type": "uint256"
        },
        {
          "internalType": "uint256",
          "name": "_revealEnd",
          "type": "uint256"
        }
      ],
      "name": "setWindows",
      "outputs": [],
      "stateMutability": "nonpayable",
      "type": "function"
    },
    {
      "inputs": [
        {
          "internalType": "address",
          "name": "_authorizer",
          "type": "address"
        }
      ],
      "name": "setAuthorizer",
      "outputs": [],
      "stateMutability": "nonpayable",
      "type": "function"
    },
    {
      "inputs": [
        {
          "internalType": "bytes",
          "name": "signature",
          "type": "bytes"
        }
      ],
      "name": "registerVoter",
      "outputs": [],
      "stateMutability": "nonpayable",
      "type": "function"
    },
    {
      "inputs": [
        {
          "internalType": "bytes32",
          "name": "commitment",
          "type": "bytes32"
        }
      ],
      "name": "commitVote",
      "outputs": [],
      "stateMutability": "nonpayable",
      "type": "function"
    },
    {
      "inputs": [
        {
          "internalType": "uint256",
          "name": "candidateId",
          "type": "uint256"
        },
        {
          "internalType": "bytes32",
          "name": "salt",
          "type": "bytes32"
        }
      ],
      "name": "revealVote",
      "outputs": [],
      "stateMutability": "nonpayable",
      "type": "function"
    },
    {
      "inputs": [
        {
          "internalType": "bytes32",
          "name": "ballotHash",
          "type": "bytes32"
        }
      ],
      "name": "recordEncryptedBallotHash",
      "outputs": [],
      "stateMutability": "nonpayable",
      "type": "function"
    },
    {
      "inputs": [],
      "name": "getResults",
      "outputs": [
        {
          "internalType": "uint256[]",
          "name": "",
          "type": "uint256[]"
        }
      ],
      "stateMutability": "view",
      "type": "function"
    },
    {
      "inputs": [],
      "name": "tallyVotes",
      "outputs": [],
      "stateMutability": "nonpayable",
      "type": "function"
    }
  ],
  "bytecode": "0x608060405234801561000f575f80fd5b506040516113e43803806113e483398101604081905261002e916100fc565b6001600160a01b03841661007a5760405162461bcd60e51b815260206004820152600e60248201526d3130b21030baba3437b934bd32b960911b60448201526064015b60405180910390fd5b818310801561008857508082105b6100c25760405162461bcd60e51b815260206004820152600b60248201526a6261642077696e646f777360a81b6044820152606401610071565b5f80546001600160a01b039095166001600160a01b0319958616179055600180549094163317909355600291909155600355600455610143565b5f805f806080858703121561010f575f80fd5b84516001600160a01b0381168114610125575f80fd5b60208601516040870151606090970151919890975090945092505050565b611294806101505f395ff3fe608060405234801561000f575f80fd5b506004361061013d575f3560e01c80635e143caa116100b4578063ba335eda11610079578063ba335eda1461028c578063c3c5a54714610295578063c6dbe15a146102b7578063d09edf31146102d9578063ed8b6b3114610303578063f851a44014610322575f80fd5b80635e143caa1461021e5780635e7c34f41461023b57806369edbcda1461024e578063a6e6647714610261578063b9a530131461026a575f80fd5b80633e858923116101055780633e858923146101a85780633eee4e27146101bb57806342d59244146101c4578063462e91ec146101d75780634717f97c146101ea57806354a926f1146101ff575f80fd5b8063058a628f146101415780631273032e146101565780632d35a8a2146101695780633477ee2e14610180578063378a2178146101a0575b5f80fd5b61015461014f366004610ef4565b610335565b005b610154610164366004610f21565b6103d0565b6005545b6040519081526020015b60405180910390f35b61019361018e366004610f21565b6104ab565b6040516101779190610f38565b610154610551565b6101546101b6366004610f21565b6106b5565b61016d60035481565b6101546101d2366004610f83565b6107fe565b6101546101e5366004610ff1565b6108cf565b6101f2610974565b6040516101779190611030565b61016d61020d366004610ef4565b600b6020525f908152604090205481565b60075461022b9060ff1681565b6040519015158152602001610177565b610154610249366004610ff1565b610a10565b61015461025c366004611073565b610b87565b61016d60045481565b61022b610278366004610ef4565b600a6020525f908152604090205460ff1681565b61016d60025481565b61022b6102a3366004610ef4565b60086020525f908152604090205460ff1681565b61022b6102c5366004610ef4565b60096020525f908152604090205460ff1681565b5f546102eb906001600160a01b031681565b6040516001600160a01b039091168152602001610177565b61016d610311366004610f21565b60066020525f908152604090205481565b6001546102eb906001600160a01b031681565b6001546001600160a01b031633146103685760405162461bcd60e51b815260040161035f90611093565b60405180910390fd5b6001600160a01b0381166103af5760405162461bcd60e51b815260206004820152600e60248201526d3130b21030baba3437b934bd32b960911b604482015260640161035f565b5f80546001600160a01b0319166001600160a01b0392909216919091179055565b60025442101580156103e457506003544211155b6104235760405162461bcd60e51b815260206004820152601060248201526f6e6f7420636f6d6d697420706861736560801b604482015260640161035f565b335f9081526008602052604090205460ff166104725760405162461bcd60e51b815260206004820152600e60248201526d1b9bdd081c9959da5cdd195c995960921b604482015260640161035f565b60405181815233907f203943484c1de2774c358ac6fa5234c9255108115d89b60ae71c6423c9b6a978906020015b60405180910390a250565b600581815481106104ba575f80fd5b905f5260205f20015f9150905080546104d2906110b6565b80601f01602080910402602001604051908101604052809291908181526020018280546104fe906110b6565b80156105495780601f1061052057610100808354040283529160200191610549565b820191905f5260205f20905b81548152906001019060200180831161052c57829003601f168201915b505050505081565b60045442116105955760405162461bcd60e51b815260206004820152601060248201526f1c995d99585b081b9bdd08195b99195960821b604482015260640161035f565b60075460ff16156105da5760405162461bcd60e51b815260206004820152600f60248201526e185b1c9958591e481d185b1b1a5959608a1b604482015260640161035f565b6007805460ff191660011790556005545f8167ffffffffffffffff811115610604576106046110ee565b60405190808252806020026020018201604052801561062d578160200160208202803683370190505b5090505f5b82811015610679575f81815260066020526040902054825183908390811061065c5761065c611102565b6020908102919091010152806106718161112a565b915050610632565b507f45cc000b7fa42997f6bd298de17f859587423252c9994fbfc4c0780db66747c9816040516106a99190611030565b60405180910390a15050565b60025442101580156106c957506003544211155b6107085760405162461bcd60e51b815260206004820152601060248201526f6e6f7420636f6d6d697420706861736560801b604482015260640161035f565b335f9081526008602052604090205460ff166107575760405162461bcd60e51b815260206004820152600e60248201526d1b9bdd081c9959da5cdd195c995960921b604482015260640161035f565b335f9081526009602052604090205460ff16156107aa5760405162461bcd60e51b8152602060048201526011602482015270185b1c9958591e4818dbdb5b5a5d1d1959607a1b604482015260640161035f565b335f818152600b602090815260408083208590556009825291829020805460ff1916600117905590518381527f378881b5d2d0f50f0782bfc28c9194fbce3515be77236885f5256babb2e45c3391016104a0565b6001546001600160a01b031633146108285760405162461bcd60e51b815260040161035f90611093565b60025442106108795760405162461bcd60e51b815260206004820152601960248201527f63616e6e6f74206368616e676520616674657220737461727400000000000000604482015260640161035f565b818310801561088757508082105b6108c15760405162461bcd60e51b815260206004820152600b60248201526a6261642077696e646f777360a81b604482015260640161035f565b600292909255600355600455565b6001546001600160a01b031633146108f95760405162461bcd60e51b815260040161035f90611093565b806109335760405162461bcd60e51b815260206004820152600a602482015269656d707479206e616d6560b01b604482015260640161035f565b600580546001810182555f919091527f036b6384b5eca791c62761152d0c79bb0604c104a5fb6f4eb0703f3154bb3db00161096f82848361118f565b505050565b6005546060905f8167ffffffffffffffff811115610994576109946110ee565b6040519080825280602002602001820160405280156109bd578160200160208202803683370190505b5090505f5b82811015610a09575f8181526006602052604090205482518390839081106109ec576109ec611102565b602090810291909101015280610a018161112a565b9150506109c2565b5092915050565b335f9081526008602052604090205460ff1615610a645760405162461bcd60e51b8152602060048201526012602482015271185b1c9958591e481c9959da5cdd195c995960721b604482015260640161035f565b60405163564f544560e01b60208201524660248201526bffffffffffffffffffffffff193360601b1660448201525f906058016040516020818303038152906040528051906020012090505f610aef8285858080601f0160208091040260200160405190810160405280939291908181526020018383808284375f92019190915250610dcb92505050565b5f549091506001600160a01b03808316911614610b425760405162461bcd60e51b8152602060048201526011602482015270696e76616c6964207369676e617475726560781b604482015260640161035f565b335f81815260086020526040808220805460ff19166001179055517fb6be2187d059cc2a55fe29e0e503b566e1e0f8c8780096e185429350acffd3dd9190a250505050565b60035442118015610b9a57506004544211155b610bd95760405162461bcd60e51b815260206004820152601060248201526f6e6f742072657665616c20706861736560801b604482015260640161035f565b335f9081526009602052604090205460ff16610c235760405162461bcd60e51b81526020600482015260096024820152681b9bc818dbdb5b5a5d60ba1b604482015260640161035f565b335f908152600a602052604090205460ff1615610c755760405162461bcd60e51b815260206004820152601060248201526f185b1c9958591e481c995d99585b195960821b604482015260640161035f565b6005548210610cb65760405162461bcd60e51b815260206004820152600d60248201526c6261642063616e64696461746560981b604482015260640161035f565b5f828233604051602001610cef93929190928352602083019190915260601b6bffffffffffffffffffffffff1916604082015260540190565b60408051601f198184030181529181528151602092830120335f908152600b9093529120549091508114610d5b5760405162461bcd60e51b81526020600482015260136024820152720c6dedadad2e8dacadce840dad2e6dac2e8c6d606b1b604482015260640161035f565b335f908152600a60209081526040808320805460ff1916600190811790915586845260069092528220805491929091610d9590849061124b565b9091555050604051839033907f522b45c661375abb939dc17b4b600412c93af64fcbe24859a73539d01bb4eec8905f90a3505050565b6040517f19457468657265756d205369676e6564204d6573736167653a0a3332000000006020820152603c81018390525f908190605c016040516020818303038152906040528051906020012090505f805f610e2686610e95565b604080515f81526020810180835289905260ff8316918101919091526060810184905260808101839052929550909350915060019060a0016020604051602081039080840390855afa158015610e7e573d5f803e3d5ffd5b505050602060405103519450505050505b92915050565b5f805f8351604114610ed75760405162461bcd60e51b815260206004820152600b60248201526a3130b21039b4b3903632b760a91b604482015260640161035f565b5050506020810151604082015160609092015190925f9190911a90565b5f60208284031215610f04575f80fd5b81356001600160a01b0381168114610f1a575f80fd5b9392505050565b5f60208284031215610f31575f80fd5b5035919050565b5f6020808352835180828501525f5b81811015610f6357858101830151858201604001528201610f47565b505f604082860101526040601f19601f8301168501019250505092915050565b5f805f60608486031215610f95575f80fd5b505081359360208301359350604090920135919050565b5f8083601f840112610fbc575f80fd5b50813567ffffffffffffffff811115610fd3575f80fd5b602083019150836020828501011115610fea575f80fd5b9250929050565b5f8060208385031215611002575f80fd5b823567ffffffffffffffff811115611018575f80fd5b61102485828601610fac565b90969095509350505050565b602080825282518282018190525f9190848201906040850190845b818110156110675783518352928401929184019160010161104b565b50909695505050505050565b5f8060408385031215611084575f80fd5b50508035926020909101359150565b6020808252600990820152683737ba1030b236b4b760b91b604082015260600190565b600181811c908216806110ca57607f821691505b6020821081036110e857634e487b7160e01b5f52602260045260245ffd5b50919050565b634e487b7160e01b5f52604160045260245ffd5b634e487b7160e01b5f52603260045260245ffd5b634e487b7160e01b5f52601160045260245ffd5b5f6001820161113b5761113b611116565b5060010190565b601f82111561096f575f81815260208120601f850160051c810160208610156111685750805b601f850160051c820191505b8181101561118757828155600101611174565b505050505050565b67ffffffffffffffff8311156111a7576111a76110ee565b6111bb836111b583546110b6565b83611142565b5f601f8411600181146111ec575f85156111d55750838201355b5f19600387901b1c1916600186901b178355611244565b5f83815260209020601f19861690835b8281101561121c57868501358255602094850194600190920191016111fc565b5086821015611238575f1960f88860031b161c19848701351681555b505060018560011b0183555b5050505050565b80820180821115610e8f57610e8f61111656fea2646970667358221220f2d27c174747deb5a3874a7c0f004eaff9b4ffbed92dd9444c5a9960e92f446a64736f6c63430008140033",
  "immutableReferences": {},
  "source": "// SPDX-License-Identifier: MIT\r\npragma solidity ^0.8.20;\r\n\r\n/**\r\n * CommitReveal E-Voting (one person = one vote)\r\n * - Off-chain authorizer signs permissions; user self-registers on-chain.\r\n * - Commit during commit window, reveal during reveal window.\r\n * - One vote per address, enforced by mappings.\r\n */\r\ncontract Voting {\r\n    event VoterRegistered(address indexed voter);\r\n    event VoteCommitted(address indexed voter, bytes32 commitment);\r\n    event VoteRevealed(address indexed voter, uint256 indexed candidateId);\r\n    event EncryptedBallotAnchored(address indexed voter, bytes32 ballotHash);\r\n    event TallyFinalized(uint256[] results);\r\n\r\n    address public authorizer;\r\n    address public admin;\r\n\r\n    uint256 public commitStart;\r\n    uint256 public commitEnd;\r\n    uint256 public revealEnd;\r\n\r\n    string[] public candidates;\r\n    mapping(uint256 => uint256) public tally;\r\n    bool public finalTallyDone;\r\n\r\n    mapping(address => bool) public isRegistered;\r\n    mapping(address => bool) public hasCommitted;\r\n    mapping(address => bool) public hasRevealed;\r\n    mapping(address => bytes32) public voteCommitment;\r\n\r\n    constructor(\r\n        address _authorizer,\r\n        uint256 _commitStart,\r\n        uint256 _commitEnd,\r\n        uint256 _revealEnd\r\n    ) {\r\n        require(_authorizer != address(0), \"bad authorizer\");\r\n        require(_commitStart < _commitEnd && _commitEnd < _revealEnd, \"bad windows\");\r\n        authorizer = _authorizer;\r\n        admin = msg.sender;\r\n        commitStart = _commitStart;\r\n        commitEnd = _commitEnd;\r\n        revealEnd = _revealEnd;\r\n    }\r\n\r\n    modifier onlyAdmin() { require(msg.sender == admin, \"not admin\"); _; }\r\n\r\n    function addCandidate(string calldata name) external onlyAdmin {\r\n        require(bytes(name).length > 0, \"empty name\");\r\n        candidates.push(name);\r\n    }\r\n\r\n    function candidatesCount() external view returns (uint256) {\r\n        return candidates.length;\r\n    }\r\n\r\n    function setWindows(uint256 _commitStart, uint256 _commitEnd, uint256 _revealEnd) external onlyAdmin {\r\n        require(block.timestamp < commitStart, \"cannot change after start\");\r\n        require(_commitStart < _commitEnd && _commitEnd < _revealEnd, \"bad windows\");\r\n        commitStart = _commitStart;\r\n        commitEnd = _commitEnd;\r\n        revealEnd = _revealEnd;\r\n    }\r\n\r\n    function setAuthorizer(address _authorizer) external onlyAdmin {\r\n        require(_authorizer != address(0), \"bad authorizer\");\r\n        authorizer = _authorizer;\r\n    }\r\n\r\n    // Off-chain backend signs keccak256(\"VOTE\", chainId, voter) as an EIP-191 message\r\n    function registerVoter(bytes calldata signature) external {\r\n        require(!isRegistered[msg.sender], \"already registered\");\r\n        bytes32 digest = keccak256(abi.encodePacked(bytes4(0x564f5445), block.chainid, msg.sender));\r\n        address recovered = recoverSigner(digest, signature);\r\n        require(recovered == authorizer, \"invalid signature\");\r\n        isRegistered[msg.sender] = true;\r\n        emit VoterRegistered(msg.sender);\r\n    }\r\n\r\n    // commitment = keccak256(abi.encodePacked(candidateId, salt, msg.sender))\r\n    function commitVote(bytes32 commitment) external {\r\n        require(block.timestamp >= commitStart && block.timestamp <= commitEnd, \"not commit phase\");\r\n        require(isRegistered[msg.sender], \"not registered\");\r\n        require(!hasCommitted[msg.sender], \"already committed\");\r\n        voteCommitment[msg.sender] = commitment;\r\n        hasCommitted[msg.sender] = true;\r\n        emit VoteCommitted(msg.sender, commitment);\r\n    }\r\n\r\n    function revealVote(uint256 candidateId, bytes32 salt) external {\r\n        require(block.timestamp > commitEnd && block.timestamp <= revealEnd, \"not reveal phase\");\r\n        require(hasCommitted[msg.sender], \"no commit\");\r\n        require(!hasRevealed[msg.sender], \"already revealed\");\r\n        require(candidateId < candidates.length, \"bad candidate\");\r\n\r\n        bytes32 expected = keccak256(abi.encodePacked(candidateId, salt, msg.sender));\r\n        require(expected == voteCommitment[msg.sender], \"commitment mismatch\");\r\n\r\n        hasRevealed[msg.sender] = true;\r\n        tally[candidateId] += 1;\r\n        emit VoteRevealed(msg.sender, candidateId);\r\n    }\r\n\r\n    function recordEncryptedBallotHash(bytes32 ballotHash) external {\r\n        require(block.timestamp >= commitStart && block.timestamp <= commitEnd, \"not commit phase\");\r\n        require(isRegistered[msg.sender], \"not registered\");\r\n        emit EncryptedBallotAnchored(msg.sender, ballotHash);\r\n    }\r\n\r\n    function getResults() external view returns (uint256[] memory) {\r\n        uint256 n = candidates.length;\r\n        uint256[] memory results = new uint256[](n);\r\n        for (uint256 i = 0; i < n; i++) results[i] = tally[i];\r\n        return results;\r\n    }\r\n\r\n    function tallyVotes() external {\r\n        require(block.timestamp > revealEnd, \"reveal not ended\");\r\n        require(!finalTallyDone, \"already tallied\");\r\n        finalTallyDone = true;\r\n\r\n        uint256 n = candidates.length;\r\n        uint256[] memory results = new uint256[](n);\r\n        for (uint256 i = 0; i < n; i++) results[i] = tally[i];\r\n        emit TallyFinalized(results);\r\n    }\r\n\r\n    // ECDSA helpers\r\n    function recoverSigner(bytes32 digest, bytes memory signature) internal pure returns (address) {\r\n        bytes32 ethSigned = keccak256(abi.encodePacked(\"\\x19Ethereum Signed Message:\\n32\", digest));\r\n        (bytes32 r, bytes32 s, uint8 v) = splitSignature(signature);\r\n        return ecrecover(ethSigned, v, r, s);\r\n    }\r\n    function splitSignature(bytes memory sig) internal pure returns (bytes32 r, bytes32 s, uint8 v) {\r\n        require(sig.length == 65, \"bad sig len\");\r\n        assembly {\r\n            r := mload(add(sig, 32))\r\n            s := mload(add(sig, 64))\r\n            v := byte(0, mload(add(sig, 96)))\r\n        }\r\n    }\r\n}\r\n",
  "sourcePath": "C:\\Users\\chekq\\Desktop\\e-Voting-dApp\\contracts\\Voting.sol",
  "compiler": {
    "name": "solc",
    "version": "0.8.20+commit.a1b79de6.Emscripten.clang"
  },
  "schemaVersion": "3.4.16",
  "updatedAt": "2025-08-12T13:41:35.865Z",
  "devdoc": {
    "kind": "dev",
    "methods": {},
    "version": 1
  },
  "userdoc": {
    "kind": "user",
    "methods": {},
    "notice": "CommitReveal E-Voting (one person = one vote) - Off-chain authorizer signs permissions; user self-registers on-chain. - Commit during commit window, reveal during reveal window. - One vote per address, enforced by mappings.",
    "version": 1
  }
}